{
    "_format": "hh-sol-artifact-1",
    "contractName": "DDNFT",
    "sourceName": "contracts/NFT.sol",
    "abi": [
        {
            "inputs": [
                {
                    "internalType": "string",
                    "name": "_URI",
                    "type": "string"
                }
            ],
            "stateMutability": "nonpayable",
            "type": "constructor"
        },
        {
            "anonymous": false,
            "inputs": [
                {
                    "indexed": true,
                    "internalType": "address",
                    "name": "owner",
                    "type": "address"
                },
                {
                    "indexed": true,
                    "internalType": "address",
                    "name": "approved",
                    "type": "address"
                },
                {
                    "indexed": true,
                    "internalType": "uint256",
                    "name": "tokenId",
                    "type": "uint256"
                }
            ],
            "name": "Approval",
            "type": "event"
        },
        {
            "anonymous": false,
            "inputs": [
                {
                    "indexed": true,
                    "internalType": "address",
                    "name": "owner",
                    "type": "address"
                },
                {
                    "indexed": true,
                    "internalType": "address",
                    "name": "operator",
                    "type": "address"
                },
                {
                    "indexed": false,
                    "internalType": "bool",
                    "name": "approved",
                    "type": "bool"
                }
            ],
            "name": "ApprovalForAll",
            "type": "event"
        },
        {
            "anonymous": false,
            "inputs": [
                {
                    "indexed": true,
                    "internalType": "address",
                    "name": "previousOwner",
                    "type": "address"
                },
                {
                    "indexed": true,
                    "internalType": "address",
                    "name": "newOwner",
                    "type": "address"
                }
            ],
            "name": "OwnershipTransferred",
            "type": "event"
        },
        {
            "anonymous": false,
            "inputs": [
                {
                    "indexed": true,
                    "internalType": "address",
                    "name": "from",
                    "type": "address"
                },
                {
                    "indexed": true,
                    "internalType": "address",
                    "name": "to",
                    "type": "address"
                },
                {
                    "indexed": true,
                    "internalType": "uint256",
                    "name": "tokenId",
                    "type": "uint256"
                }
            ],
            "name": "Transfer",
            "type": "event"
        },
        {
            "inputs": [],
            "name": "MAX_SUPPLY",
            "outputs": [
                {
                    "internalType": "uint256",
                    "name": "",
                    "type": "uint256"
                }
            ],
            "stateMutability": "view",
            "type": "function"
        },
        {
            "inputs": [
                {
                    "internalType": "address",
                    "name": "to",
                    "type": "address"
                }
            ],
            "name": "adminMint",
            "outputs": [],
            "stateMutability": "nonpayable",
            "type": "function"
        },
        {
            "inputs": [
                {
                    "internalType": "address[]",
                    "name": "_airdrops",
                    "type": "address[]"
                }
            ],
            "name": "airDrop",
            "outputs": [],
            "stateMutability": "nonpayable",
            "type": "function"
        },
        {
            "inputs": [
                {
                    "internalType": "address",
                    "name": "to",
                    "type": "address"
                },
                {
                    "internalType": "uint256",
                    "name": "tokenId",
                    "type": "uint256"
                }
            ],
            "name": "approve",
            "outputs": [],
            "stateMutability": "nonpayable",
            "type": "function"
        },
        {
            "inputs": [
                {
                    "internalType": "address",
                    "name": "owner",
                    "type": "address"
                }
            ],
            "name": "balanceOf",
            "outputs": [
                {
                    "internalType": "uint256",
                    "name": "",
                    "type": "uint256"
                }
            ],
            "stateMutability": "view",
            "type": "function"
        },
        {
            "inputs": [
                {
                    "internalType": "uint256",
                    "name": "tokenId",
                    "type": "uint256"
                }
            ],
            "name": "getApproved",
            "outputs": [
                {
                    "internalType": "address",
                    "name": "",
                    "type": "address"
                }
            ],
            "stateMutability": "view",
            "type": "function"
        },
        {
            "inputs": [
                {
                    "internalType": "address",
                    "name": "owner",
                    "type": "address"
                },
                {
                    "internalType": "address",
                    "name": "operator",
                    "type": "address"
                }
            ],
            "name": "isApprovedForAll",
            "outputs": [
                {
                    "internalType": "bool",
                    "name": "",
                    "type": "bool"
                }
            ],
            "stateMutability": "view",
            "type": "function"
        },
        {
            "inputs": [],
            "name": "mint",
            "outputs": [],
            "stateMutability": "payable",
            "type": "function"
        },
        {
            "inputs": [],
            "name": "name",
            "outputs": [
                {
                    "internalType": "string",
                    "name": "",
                    "type": "string"
                }
            ],
            "stateMutability": "view",
            "type": "function"
        },
        {
            "inputs": [],
            "name": "owner",
            "outputs": [
                {
                    "internalType": "address",
                    "name": "",
                    "type": "address"
                }
            ],
            "stateMutability": "view",
            "type": "function"
        },
        {
            "inputs": [
                {
                    "internalType": "uint256",
                    "name": "tokenId",
                    "type": "uint256"
                }
            ],
            "name": "ownerOf",
            "outputs": [
                {
                    "internalType": "address",
                    "name": "",
                    "type": "address"
                }
            ],
            "stateMutability": "view",
            "type": "function"
        },
        {
            "inputs": [],
            "name": "pause",
            "outputs": [
                {
                    "internalType": "bool",
                    "name": "",
                    "type": "bool"
                }
            ],
            "stateMutability": "view",
            "type": "function"
        },
        {
            "inputs": [],
            "name": "renounceOwnership",
            "outputs": [],
            "stateMutability": "nonpayable",
            "type": "function"
        },
        {
            "inputs": [
                {
                    "internalType": "address",
                    "name": "from",
                    "type": "address"
                },
                {
                    "internalType": "address",
                    "name": "to",
                    "type": "address"
                },
                {
                    "internalType": "uint256",
                    "name": "tokenId",
                    "type": "uint256"
                }
            ],
            "name": "safeTransferFrom",
            "outputs": [],
            "stateMutability": "nonpayable",
            "type": "function"
        },
        {
            "inputs": [
                {
                    "internalType": "address",
                    "name": "from",
                    "type": "address"
                },
                {
                    "internalType": "address",
                    "name": "to",
                    "type": "address"
                },
                {
                    "internalType": "uint256",
                    "name": "tokenId",
                    "type": "uint256"
                },
                {
                    "internalType": "bytes",
                    "name": "data",
                    "type": "bytes"
                }
            ],
            "name": "safeTransferFrom",
            "outputs": [],
            "stateMutability": "nonpayable",
            "type": "function"
        },
        {
            "inputs": [
                {
                    "internalType": "address",
                    "name": "operator",
                    "type": "address"
                },
                {
                    "internalType": "bool",
                    "name": "approved",
                    "type": "bool"
                }
            ],
            "name": "setApprovalForAll",
            "outputs": [],
            "stateMutability": "nonpayable",
            "type": "function"
        },
        {
            "inputs": [
                {
                    "internalType": "string",
                    "name": "_baseTokenUri",
                    "type": "string"
                }
            ],
            "name": "setTokenUri",
            "outputs": [],
            "stateMutability": "nonpayable",
            "type": "function"
        },
        {
            "inputs": [
                {
                    "internalType": "bytes4",
                    "name": "interfaceId",
                    "type": "bytes4"
                }
            ],
            "name": "supportsInterface",
            "outputs": [
                {
                    "internalType": "bool",
                    "name": "",
                    "type": "bool"
                }
            ],
            "stateMutability": "view",
            "type": "function"
        },
        {
            "inputs": [],
            "name": "symbol",
            "outputs": [
                {
                    "internalType": "string",
                    "name": "",
                    "type": "string"
                }
            ],
            "stateMutability": "view",
            "type": "function"
        },
        {
            "inputs": [],
            "name": "togglePause",
            "outputs": [],
            "stateMutability": "nonpayable",
            "type": "function"
        },
        {
            "inputs": [
                {
                    "internalType": "uint256",
                    "name": "tokenId",
                    "type": "uint256"
                }
            ],
            "name": "tokenURI",
            "outputs": [
                {
                    "internalType": "string",
                    "name": "",
                    "type": "string"
                }
            ],
            "stateMutability": "view",
            "type": "function"
        },
        {
            "inputs": [
                {
                    "internalType": "address",
                    "name": "",
                    "type": "address"
                }
            ],
            "name": "totalMints",
            "outputs": [
                {
                    "internalType": "uint256",
                    "name": "",
                    "type": "uint256"
                }
            ],
            "stateMutability": "view",
            "type": "function"
        },
        {
            "inputs": [],
            "name": "totalSupply",
            "outputs": [
                {
                    "internalType": "uint256",
                    "name": "",
                    "type": "uint256"
                }
            ],
            "stateMutability": "view",
            "type": "function"
        },
        {
            "inputs": [
                {
                    "internalType": "address",
                    "name": "from",
                    "type": "address"
                },
                {
                    "internalType": "address",
                    "name": "to",
                    "type": "address"
                },
                {
                    "internalType": "uint256",
                    "name": "tokenId",
                    "type": "uint256"
                }
            ],
            "name": "transferFrom",
            "outputs": [],
            "stateMutability": "nonpayable",
            "type": "function"
        },
        {
            "inputs": [
                {
                    "internalType": "address",
                    "name": "newOwner",
                    "type": "address"
                }
            ],
            "name": "transferOwnership",
            "outputs": [],
            "stateMutability": "nonpayable",
            "type": "function"
        },
        {
            "inputs": [],
            "name": "withdraw",
            "outputs": [],
            "stateMutability": "nonpayable",
            "type": "function"
        }
    ],
    "bytecode": "0x60806040523480156200001157600080fd5b5060405162001e4438038062001e44833981016040819052620000349162000152565b6040518060400160405280600a81526020016904444576f726b73686f760b41b8152506040518060400160405280600381526020016244445760e81b8152508160009081620000849190620002b6565b506001620000938282620002b6565b505050620000b0620000aa620000dd60201b60201c565b620000e1565b6009620000be8282620002b6565b50620000d660076200013360201b62000ca21760201c565b5062000382565b3390565b600680546001600160a01b038381166001600160a01b0319831681179093556040519116919082907f8be0079c531659141344cd1fd0a4f28419497f9722a3daafe3b4186f6b6457e090600090a35050565b80546001019055565b634e487b7160e01b600052604160045260246000fd5b600060208083850312156200016657600080fd5b82516001600160401b03808211156200017e57600080fd5b818501915085601f8301126200019357600080fd5b815181811115620001a857620001a86200013c565b604051601f8201601f19908116603f01168101908382118183101715620001d357620001d36200013c565b816040528281528886848701011115620001ec57600080fd5b600093505b82841015620002105784840186015181850187015292850192620001f1565b600086848301015280965050505050505092915050565b600181811c908216806200023c57607f821691505b6020821081036200025d57634e487b7160e01b600052602260045260246000fd5b50919050565b601f821115620002b157600081815260208120601f850160051c810160208610156200028c5750805b601f850160051c820191505b81811015620002ad5782815560010162000298565b5050505b505050565b81516001600160401b03811115620002d257620002d26200013c565b620002ea81620002e3845462000227565b8462000263565b602080601f831160018114620003225760008415620003095750858301515b600019600386901b1c1916600185901b178555620002ad565b600085815260208120601f198616915b82811015620003535788860151825594840194600190910190840162000332565b5085821015620003725787850151600019600388901b60f8161c191681555b5050505050600190811b01905550565b611ab280620003926000396000f3fe6080604052600436106101805760003560e01c80636352211e116100d15780639769dc0e1161008a578063c4ae316811610064578063c4ae31681461043b578063c87b56dd14610450578063e985e9c514610470578063f2fde38b1461049057600080fd5b80639769dc0e146103db578063a22cb465146103fb578063b88d4fde1461041b57600080fd5b80636352211e1461033957806370a0823114610359578063715018a6146103795780638456cb591461038e5780638da5cb5b146103a857806395d89b41146103c657600080fd5b80631249c58b1161013e57806323b872dd1161011857806323b872dd146102cf57806332cb6b0c146102ef5780633ccfd60b1461030457806342842e0e1461031957600080fd5b80631249c58b1461027657806318160ddd1461027e57806320863f73146102a257600080fd5b8062b6849f1461018557806301ffc9a7146101a75780630675b7c6146101dc57806306fdde03146101fc578063081812fc1461021e578063095ea7b314610256575b600080fd5b34801561019157600080fd5b506101a56101a0366004611413565b6104b0565b005b3480156101b357600080fd5b506101c76101c23660046114d6565b61058a565b60405190151581526020015b60405180910390f35b3480156101e857600080fd5b506101a56101f7366004611552565b6105dc565b34801561020857600080fd5b506102116105f0565b6040516101d391906115e1565b34801561022a57600080fd5b5061023e6102393660046115f4565b610682565b6040516001600160a01b0390911681526020016101d3565b34801561026257600080fd5b506101a561027136600461160d565b6106a9565b6101a56107be565b34801561028a57600080fd5b5061029460085481565b6040519081526020016101d3565b3480156102ae57600080fd5b506102946102bd366004611637565b600b6020526000908152604090205481565b3480156102db57600080fd5b506101a56102ea366004611652565b61084d565b3480156102fb57600080fd5b50610294603281565b34801561031057600080fd5b506101a561087e565b34801561032557600080fd5b506101a5610334366004611652565b6108de565b34801561034557600080fd5b5061023e6103543660046115f4565b6108f9565b34801561036557600080fd5b50610294610374366004611637565b610959565b34801561038557600080fd5b506101a56109df565b34801561039a57600080fd5b50600a546101c79060ff1681565b3480156103b457600080fd5b506006546001600160a01b031661023e565b3480156103d257600080fd5b506102116109f3565b3480156103e757600080fd5b506101a56103f6366004611637565b610a02565b34801561040757600080fd5b506101a561041636600461168e565b610a8e565b34801561042757600080fd5b506101a56104363660046116ca565b610a99565b34801561044757600080fd5b506101a5610ad1565b34801561045c57600080fd5b5061021161046b3660046115f4565b610aed565b34801561047c57600080fd5b506101c761048b366004611746565b610bfe565b34801561049c57600080fd5b506101a56104ab366004611637565b610c2c565b6104b8610cab565b600a5460ff16156104e45760405162461bcd60e51b81526004016104db90611779565b60405180910390fd5b603281516008546104f591906117b8565b11156105135760405162461bcd60e51b81526004016104db906117cb565b60005b815181101561058657600061052a60075490565b905061053a600780546001019055565b61055d83838151811061054f5761054f6117f8565b602002602001015182610d05565b6008805490600061056d8361180e565b919050555050808061057e9061180e565b915050610516565b5050565b60006001600160e01b031982166380ac58cd60e01b14806105bb57506001600160e01b03198216635b5e139f60e01b145b806105d657506301ffc9a760e01b6001600160e01b03198316145b92915050565b6105e4610cab565b600961058682826118af565b6060600080546105ff90611827565b80601f016020809104026020016040519081016040528092919081815260200182805461062b90611827565b80156106785780601f1061064d57610100808354040283529160200191610678565b820191906000526020600020905b81548152906001019060200180831161065b57829003601f168201915b5050505050905090565b600061068d82610e47565b506000908152600460205260409020546001600160a01b031690565b60006106b4826108f9565b9050806001600160a01b0316836001600160a01b0316036107215760405162461bcd60e51b815260206004820152602160248201527f4552433732313a20617070726f76616c20746f2063757272656e74206f776e656044820152603960f91b60648201526084016104db565b336001600160a01b038216148061073d575061073d8133610bfe565b6107af5760405162461bcd60e51b815260206004820152603e60248201527f4552433732313a20617070726f76652063616c6c6572206973206e6f7420746f60448201527f6b656e206f776e6572206e6f7220617070726f76656420666f7220616c6c000060648201526084016104db565b6107b98383610ea6565b505050565b600a5460ff16156107e15760405162461bcd60e51b81526004016104db90611779565b603260085460016107f291906117b8565b11156108105760405162461bcd60e51b81526004016104db906117cb565b600061081b60075490565b905061082b600780546001019055565b6108353382610f14565b600880549060006108458361180e565b919050555050565b6108573382610f2e565b6108735760405162461bcd60e51b81526004016104db9061196f565b6107b9838383610f8d565b610886610cab565b604051600090339047908381818185875af1925050503d80600081146108c8576040519150601f19603f3d011682016040523d82523d6000602084013e6108cd565b606091505b50509050806108db57600080fd5b50565b6107b983838360405180602001604052806000815250610a99565b6000818152600260205260408120546001600160a01b0316806105d65760405162461bcd60e51b8152602060048201526018602482015277115490cdcc8c4e881a5b9d985b1a59081d1bdad95b88125160421b60448201526064016104db565b60006001600160a01b0382166109c35760405162461bcd60e51b815260206004820152602960248201527f4552433732313a2061646472657373207a65726f206973206e6f7420612076616044820152683634b21037bbb732b960b91b60648201526084016104db565b506001600160a01b031660009081526003602052604090205490565b6109e7610cab565b6109f16000611129565b565b6060600180546105ff90611827565b610a0a610cab565b600a5460ff1615610a2d5760405162461bcd60e51b81526004016104db90611779565b60326008541115610a505760405162461bcd60e51b81526004016104db906117cb565b6000610a5b60075490565b9050610a6b600780546001019055565b610a758282610f14565b60088054906000610a858361180e565b91905055505050565b61058633838361117b565b610aa33383610f2e565b610abf5760405162461bcd60e51b81526004016104db9061196f565b610acb84848484611249565b50505050565b610ad9610cab565b600a805460ff19811660ff90911615179055565b6000818152600260205260409020546060906001600160a01b0316610b6c5760405162461bcd60e51b815260206004820152602f60248201527f4552433732314d657461646174613a2055524920717565727920666f72206e6f60448201526e3732bc34b9ba32b73a103a37b5b2b760891b60648201526084016104db565b60098054610b7990611827565b80601f0160208091040260200160405190810160405280929190818152602001828054610ba590611827565b8015610bf25780601f10610bc757610100808354040283529160200191610bf2565b820191906000526020600020905b815481529060010190602001808311610bd557829003601f168201915b50505050509050919050565b6001600160a01b03918216600090815260056020908152604080832093909416825291909152205460ff1690565b610c34610cab565b6001600160a01b038116610c995760405162461bcd60e51b815260206004820152602660248201527f4f776e61626c653a206e6577206f776e657220697320746865207a65726f206160448201526564647265737360d01b60648201526084016104db565b6108db81611129565b80546001019055565b6006546001600160a01b031633146109f15760405162461bcd60e51b815260206004820181905260248201527f4f776e61626c653a2063616c6c6572206973206e6f7420746865206f776e657260448201526064016104db565b6001600160a01b038216610d5b5760405162461bcd60e51b815260206004820181905260248201527f4552433732313a206d696e7420746f20746865207a65726f206164647265737360448201526064016104db565b6000818152600260205260409020546001600160a01b031615610dc05760405162461bcd60e51b815260206004820152601c60248201527f4552433732313a20746f6b656e20616c7265616479206d696e7465640000000060448201526064016104db565b6001600160a01b0382166000908152600360205260408120805460019290610de99084906117b8565b909155505060008181526002602052604080822080546001600160a01b0319166001600160a01b03861690811790915590518392907fddf252ad1be2c89b69c2b068fc378daa952ba7f163c4a11628f55a4df523b3ef908290a45050565b6000818152600260205260409020546001600160a01b03166108db5760405162461bcd60e51b8152602060048201526018602482015277115490cdcc8c4e881a5b9d985b1a59081d1bdad95b88125160421b60448201526064016104db565b600081815260046020526040902080546001600160a01b0319166001600160a01b0384169081179091558190610edb826108f9565b6001600160a01b03167f8c5be1e5ebec7d5bd14f71427d1e84f3dd0314c0f7b2291e5b200ac8c7c3b92560405160405180910390a45050565b61058682826040518060200160405280600081525061127c565b600080610f3a836108f9565b9050806001600160a01b0316846001600160a01b03161480610f615750610f618185610bfe565b80610f855750836001600160a01b0316610f7a84610682565b6001600160a01b0316145b949350505050565b826001600160a01b0316610fa0826108f9565b6001600160a01b0316146110045760405162461bcd60e51b815260206004820152602560248201527f4552433732313a207472616e736665722066726f6d20696e636f72726563742060448201526437bbb732b960d91b60648201526084016104db565b6001600160a01b0382166110665760405162461bcd60e51b8152602060048201526024808201527f4552433732313a207472616e7366657220746f20746865207a65726f206164646044820152637265737360e01b60648201526084016104db565b611071600082610ea6565b6001600160a01b038316600090815260036020526040812080546001929061109a9084906119bd565b90915550506001600160a01b03821660009081526003602052604081208054600192906110c89084906117b8565b909155505060008181526002602052604080822080546001600160a01b0319166001600160a01b0386811691821790925591518493918716917fddf252ad1be2c89b69c2b068fc378daa952ba7f163c4a11628f55a4df523b3ef91a4505050565b600680546001600160a01b038381166001600160a01b0319831681179093556040519116919082907f8be0079c531659141344cd1fd0a4f28419497f9722a3daafe3b4186f6b6457e090600090a35050565b816001600160a01b0316836001600160a01b0316036111dc5760405162461bcd60e51b815260206004820152601960248201527f4552433732313a20617070726f766520746f2063616c6c65720000000000000060448201526064016104db565b6001600160a01b03838116600081815260056020908152604080832094871680845294825291829020805460ff191686151590811790915591519182527f17307eab39ab6107e8899845ad3d59bd9653f200f220920489ca2b5937696c31910160405180910390a3505050565b611254848484610f8d565b611260848484846112af565b610acb5760405162461bcd60e51b81526004016104db906119d0565b6112868383610d05565b61129360008484846112af565b6107b95760405162461bcd60e51b81526004016104db906119d0565b60006001600160a01b0384163b156113a557604051630a85bd0160e11b81526001600160a01b0385169063150b7a02906112f3903390899088908890600401611a22565b6020604051808303816000875af192505050801561132e575060408051601f3d908101601f1916820190925261132b91810190611a5f565b60015b61138b573d80801561135c576040519150601f19603f3d011682016040523d82523d6000602084013e611361565b606091505b5080516000036113835760405162461bcd60e51b81526004016104db906119d0565b805181602001fd5b6001600160e01b031916630a85bd0160e11b149050610f85565b506001949350505050565b634e487b7160e01b600052604160045260246000fd5b604051601f8201601f1916810167ffffffffffffffff811182821017156113ef576113ef6113b0565b604052919050565b80356001600160a01b038116811461140e57600080fd5b919050565b6000602080838503121561142657600080fd5b823567ffffffffffffffff8082111561143e57600080fd5b818501915085601f83011261145257600080fd5b813581811115611464576114646113b0565b8060051b91506114758483016113c6565b818152918301840191848101908884111561148f57600080fd5b938501935b838510156114b4576114a5856113f7565b82529385019390850190611494565b98975050505050505050565b6001600160e01b0319811681146108db57600080fd5b6000602082840312156114e857600080fd5b81356114f3816114c0565b9392505050565b600067ffffffffffffffff831115611514576115146113b0565b611527601f8401601f19166020016113c6565b905082815283838301111561153b57600080fd5b828260208301376000602084830101529392505050565b60006020828403121561156457600080fd5b813567ffffffffffffffff81111561157b57600080fd5b8201601f8101841361158c57600080fd5b610f85848235602084016114fa565b6000815180845260005b818110156115c1576020818501810151868301820152016115a5565b506000602082860101526020601f19601f83011685010191505092915050565b6020815260006114f3602083018461159b565b60006020828403121561160657600080fd5b5035919050565b6000806040838503121561162057600080fd5b611629836113f7565b946020939093013593505050565b60006020828403121561164957600080fd5b6114f3826113f7565b60008060006060848603121561166757600080fd5b611670846113f7565b925061167e602085016113f7565b9150604084013590509250925092565b600080604083850312156116a157600080fd5b6116aa836113f7565b9150602083013580151581146116bf57600080fd5b809150509250929050565b600080600080608085870312156116e057600080fd5b6116e9856113f7565b93506116f7602086016113f7565b925060408501359150606085013567ffffffffffffffff81111561171a57600080fd5b8501601f8101871361172b57600080fd5b61173a878235602084016114fa565b91505092959194509250565b6000806040838503121561175957600080fd5b611762836113f7565b9150611770602084016113f7565b90509250929050565b6020808252600f908201526e10dbdb9d1c9858dd0814185d5cd959608a1b604082015260600190565b634e487b7160e01b600052601160045260246000fd5b808201808211156105d6576105d66117a2565b60208082526013908201527213585e081cdd5c1c1b1e48195e18d959591959606a1b604082015260600190565b634e487b7160e01b600052603260045260246000fd5b600060018201611820576118206117a2565b5060010190565b600181811c9082168061183b57607f821691505b60208210810361185b57634e487b7160e01b600052602260045260246000fd5b50919050565b601f8211156107b957600081815260208120601f850160051c810160208610156118885750805b601f850160051c820191505b818110156118a757828155600101611894565b505050505050565b815167ffffffffffffffff8111156118c9576118c96113b0565b6118dd816118d78454611827565b84611861565b602080601f83116001811461191257600084156118fa5750858301515b600019600386901b1c1916600185901b1785556118a7565b600085815260208120601f198616915b8281101561194157888601518255948401946001909101908401611922565b508582101561195f5787850151600019600388901b60f8161c191681555b5050505050600190811b01905550565b6020808252602e908201527f4552433732313a2063616c6c6572206973206e6f7420746f6b656e206f776e6560408201526d1c881b9bdc88185c1c1c9bdd995960921b606082015260800190565b818103818111156105d6576105d66117a2565b60208082526032908201527f4552433732313a207472616e7366657220746f206e6f6e20455243373231526560408201527131b2b4bb32b91034b6b83632b6b2b73a32b960711b606082015260800190565b6001600160a01b0385811682528416602082015260408101839052608060608201819052600090611a559083018461159b565b9695505050505050565b600060208284031215611a7157600080fd5b81516114f3816114c056fea26469706673582212208437daba13d26cd214dc7e9f763f4207c1149485785581eaa6c35f6f6242189164736f6c63430008110033",
    "linkReferences": {},
    "deployedLinkReferences": {}
}